{
  "contractName": "MedicalPrescription",
  "abi": [
    {
      "constant": true,
      "inputs": [
        {
          "name": "",
          "type": "uint256"
        }
      ],
      "name": "prescriptions",
      "outputs": [
        {
          "name": "id",
          "type": "uint256"
        },
        {
          "name": "doctor",
          "type": "address"
        },
        {
          "name": "patientId",
          "type": "uint16"
        },
        {
          "name": "pharmacist",
          "type": "address"
        },
        {
          "name": "medicineDetails",
          "type": "string"
        },
        {
          "name": "fulfilled",
          "type": "bool"
        }
      ],
      "payable": false,
      "stateMutability": "view",
      "type": "function",
      "signature": "0x31dfc91b"
    },
    {
      "constant": true,
      "inputs": [],
      "name": "prescriptionCount",
      "outputs": [
        {
          "name": "",
          "type": "uint256"
        }
      ],
      "payable": false,
      "stateMutability": "view",
      "type": "function",
      "signature": "0xb6558498"
    },
    {
      "anonymous": false,
      "inputs": [
        {
          "indexed": false,
          "name": "id",
          "type": "uint256"
        },
        {
          "indexed": false,
          "name": "doctor",
          "type": "address"
        },
        {
          "indexed": false,
          "name": "patientId",
          "type": "uint16"
        },
        {
          "indexed": false,
          "name": "pharmacist",
          "type": "address"
        },
        {
          "indexed": false,
          "name": "medicineDetails",
          "type": "string"
        },
        {
          "indexed": false,
          "name": "fulfilled",
          "type": "bool"
        }
      ],
      "name": "PrescriptionCreated",
      "type": "event",
      "signature": "0xec4c6e532d2ab30eee6e69159578050b8983e14cc33bb33d0e2e126d7750ef17"
    },
    {
      "anonymous": false,
      "inputs": [
        {
          "indexed": false,
          "name": "id",
          "type": "uint256"
        },
        {
          "indexed": false,
          "name": "pharmacist",
          "type": "address"
        }
      ],
      "name": "PrescriptionFulfilled",
      "type": "event",
      "signature": "0x1fd747d593a3abe3d63a6823e8452fc4a810ea6aedf557a8fd0e6af7db71f4b6"
    },
    {
      "constant": false,
      "inputs": [
        {
          "name": "_patientId",
          "type": "uint16"
        },
        {
          "name": "_pharmacist",
          "type": "address"
        },
        {
          "name": "_medicineDetails",
          "type": "string"
        }
      ],
      "name": "createPrescription",
      "outputs": [],
      "payable": false,
      "stateMutability": "nonpayable",
      "type": "function",
      "signature": "0x20855fd0"
    },
    {
      "constant": false,
      "inputs": [
        {
          "name": "_id",
          "type": "uint256"
        }
      ],
      "name": "fulfillPrescription",
      "outputs": [],
      "payable": false,
      "stateMutability": "nonpayable",
      "type": "function",
      "signature": "0x686e9062"
    },
    {
      "constant": true,
      "inputs": [
        {
          "name": "_id",
          "type": "uint256"
        }
      ],
      "name": "viewPrescription",
      "outputs": [
        {
          "name": "",
          "type": "uint256"
        },
        {
          "name": "",
          "type": "address"
        },
        {
          "name": "",
          "type": "uint16"
        },
        {
          "name": "",
          "type": "address"
        },
        {
          "name": "",
          "type": "string"
        },
        {
          "name": "",
          "type": "bool"
        }
      ],
      "payable": false,
      "stateMutability": "view",
      "type": "function",
      "signature": "0x185c20c6"
    }
  ],
  "bytecode": "0x60806040526000805534801561001457600080fd5b50610973806100246000396000f3fe60806040526004361061006c5763ffffffff7c0100000000000000000000000000000000000000000000000000000000600035041663185c20c6811461007157806320855fd01461016657806331dfc91b14610234578063686e90621461025e578063b655849814610288575b600080fd5b34801561007d57600080fd5b5061009b6004803603602081101561009457600080fd5b50356102af565b6040518087815260200186600160a060020a0316600160a060020a031681526020018561ffff1661ffff16815260200184600160a060020a0316600160a060020a031681526020018060200183151515158152602001828103825284818151815260200191508051906020019080838360005b8381101561012657818101518382015260200161010e565b50505050905090810190601f1680156101535780820380516001836020036101000a031916815260200191505b5097505050505050505060405180910390f35b34801561017257600080fd5b506102326004803603606081101561018957600080fd5b61ffff82351691600160a060020a03602082013516918101906060810160408201356401000000008111156101bd57600080fd5b8201836020820111156101cf57600080fd5b803590602001918460018302840111640100000000831117156101f157600080fd5b91908080601f0160208091040260200160405190810160405280939291908181526020018383808284376000920191909152509295506103f7945050505050565b005b34801561024057600080fd5b5061009b6004803603602081101561025757600080fd5b50356105fb565b34801561026a57600080fd5b506102326004803603602081101561028157600080fd5b50356106dc565b34801561029457600080fd5b5061029d610872565b60408051918252519081900360200190f35b600080600080606060006102c1610878565b600088815260016020818152604092839020835160c0810185528154815281840154600160a060020a03808216838601527401000000000000000000000000000000000000000090910461ffff1682870152600280840154909116606083015260038301805487516101009782161597909702600019011691909104601f81018590048502860185019096528585529094919360808601939092908301828280156103ad5780601f10610382576101008083540402835291602001916103ad565b820191906000526020600020905b81548152906001019060200180831161039057829003601f168201915b50505091835250506004919091015460ff16151560209182015281519082015160408301516060840151608085015160a090950151939d929c50909a509850919650945092505050565b6000805460019081018083556040805160c08101825282815233602080830191825261ffff808b16848601908152600160a060020a038b811660608701908152608087018c815260a088018c9052988b528985529690992085518155935197840180549151909216740100000000000000000000000000000000000000000275ffff000000000000000000000000000000000000000019988a1673ffffffffffffffffffffffffffffffffffffffff199283161798909816979097179055925160028201805491909716951694909417909455905180516104de92600385019201906108ac565b5060a08201518160040160006101000a81548160ff0219169083151502179055509050507fec4c6e532d2ab30eee6e69159578050b8983e14cc33bb33d0e2e126d7750ef176000543385858560006040518087815260200186600160a060020a0316600160a060020a031681526020018561ffff1661ffff16815260200184600160a060020a0316600160a060020a031681526020018060200183151515158152602001828103825284818151815260200191508051906020019080838360005b838110156105b757818101518382015260200161059f565b50505050905090810190601f1680156105e45780820380516001836020036101000a031916815260200191505b5097505050505050505060405180910390a1505050565b60016020818152600092835260409283902080548184015460028084015460038501805489516101009982161599909902600019011692909204601f81018790048702880187019098528787529296600160a060020a03808416977401000000000000000000000000000000000000000090940461ffff1696941694938301828280156106c95780601f1061069e576101008083540402835291602001916106c9565b820191906000526020600020905b8154815290600101906020018083116106ac57829003601f168201915b5050506004909301549192505060ff1686565b60008181526001602052604090206002810154600160a060020a0316331461078b57604080517f08c379a000000000000000000000000000000000000000000000000000000000815260206004820152603b60248201527f4f6e6c79207468652061737369676e656420706861726d61636973742063616e60448201527f2066756c66696c6c207468697320707265736372697074696f6e2e0000000000606482015290519081900360840190fd5b600481015460ff161561082557604080517f08c379a000000000000000000000000000000000000000000000000000000000815260206004820152602760248201527f5468697320707265736372697074696f6e20697320616c72656164792066756c60448201527f66696c6c65642e00000000000000000000000000000000000000000000000000606482015290519081900360840190fd5b60048101805460ff191660011790556040805183815233602082015281517f1fd747d593a3abe3d63a6823e8452fc4a810ea6aedf557a8fd0e6af7db71f4b6929181900390910190a15050565b60005481565b6040805160c0810182526000808252602082018190529181018290526060808201839052608082015260a081019190915290565b828054600181600116156101000203166002900490600052602060002090601f016020900481019282601f106108ed57805160ff191683800117855561091a565b8280016001018555821561091a579182015b8281111561091a5782518255916020019190600101906108ff565b5061092692915061092a565b5090565b61094491905b808211156109265760008155600101610930565b9056fea165627a7a723058205db2f4228a36aa6a1d7d95dfaae7ff3971b55e912953d3f07d946c81b0a195f50029",
  "source": "pragma solidity ^0.5.0;\r\n\r\ncontract MedicalPrescription {\r\n    uint public prescriptionCount = 0;\r\n\r\n    // Define Prescription structure\r\n    struct Prescription {\r\n        uint id;\r\n        address doctor;       // Doctor's Ethereum address\r\n        uint16 patientId;     // Patient's ID (uint16)\r\n        address pharmacist;   // Pharmacist's Ethereum address\r\n        string medicineDetails;\r\n        bool fulfilled;\r\n    }\r\n\r\n    // Mapping to store prescriptions\r\n    mapping(uint => Prescription) public prescriptions;\r\n\r\n    // Events to log contract activities\r\n    event PrescriptionCreated(\r\n        uint id,\r\n        address doctor,\r\n        uint16 patientId,\r\n        address pharmacist,\r\n        string medicineDetails,\r\n        bool fulfilled\r\n    );\r\n\r\n    event PrescriptionFulfilled(\r\n        uint id,\r\n        address pharmacist\r\n    );\r\n\r\n    // Create a new prescription (only by a doctor)\r\n    function createPrescription(uint16 _patientId, address _pharmacist, string memory _medicineDetails) public {\r\n        prescriptionCount++;\r\n        prescriptions[prescriptionCount] = Prescription(\r\n            prescriptionCount,\r\n            msg.sender, // Doctor's address\r\n            _patientId,\r\n            _pharmacist,\r\n            _medicineDetails,\r\n            false // Initially not fulfilled\r\n        );\r\n        emit PrescriptionCreated(prescriptionCount, msg.sender, _patientId, _pharmacist, _medicineDetails, false);\r\n    }\r\n\r\n    // Fulfill a prescription (only by the assigned pharmacist)\r\n    function fulfillPrescription(uint _id) public {\r\n        Prescription storage prescription = prescriptions[_id];\r\n\r\n        require(msg.sender == prescription.pharmacist, \"Only the assigned pharmacist can fulfill this prescription.\");\r\n        require(!prescription.fulfilled, \"This prescription is already fulfilled.\");\r\n\r\n        prescription.fulfilled = true;\r\n\r\n        emit PrescriptionFulfilled(_id, msg.sender);\r\n    }\r\n\r\n    // View a prescription (public visibility)\r\n    function viewPrescription(uint _id) public view returns (\r\n        uint, address, uint16, address, string memory, bool\r\n    ) {\r\n        Prescription memory prescription = prescriptions[_id];\r\n        return (\r\n            prescription.id,\r\n            prescription.doctor,\r\n            prescription.patientId,\r\n            prescription.pharmacist,\r\n            prescription.medicineDetails,\r\n            prescription.fulfilled\r\n        );\r\n    }\r\n}",
  "sourcePath": "D:/Major_project/application/backend/blockchainService/contracts/MedicalPrescription.sol",
  "compiler": {
    "name": "solc",
    "version": "0.5.0+commit.1d4f565a.Emscripten.clang"
  },
  "schemaVersion": "3.0.1",
  "updatedAt": "2024-11-21T17:21:56.207Z",
  "devdoc": {
    "methods": {}
  },
  "userdoc": {
    "methods": {}
  }
}