{
  "contractName": "MedicalPrescription",
  "abi": [
    {
      "constant": true,
      "inputs": [
        {
          "name": "",
          "type": "uint256"
        }
      ],
      "name": "prescriptions",
      "outputs": [
        {
          "name": "id",
          "type": "uint256"
        },
        {
          "name": "doctor",
          "type": "address"
        },
        {
          "name": "patientId",
          "type": "uint16"
        },
        {
          "name": "drug",
          "type": "string"
        },
        {
          "name": "dosage",
          "type": "uint256"
        },
        {
          "name": "quantity",
          "type": "uint256"
        },
        {
          "name": "fulfilled",
          "type": "bool"
        },
        {
          "name": "emergency",
          "type": "bool"
        },
        {
          "name": "justification",
          "type": "string"
        },
        {
          "name": "flagged",
          "type": "bool"
        }
      ],
      "payable": false,
      "stateMutability": "view",
      "type": "function",
      "signature": "0x31dfc91b"
    },
    {
      "constant": true,
      "inputs": [],
      "name": "regulatoryAuthority",
      "outputs": [
        {
          "name": "",
          "type": "address"
        }
      ],
      "payable": false,
      "stateMutability": "view",
      "type": "function",
      "signature": "0x7925132d"
    },
    {
      "constant": true,
      "inputs": [],
      "name": "prescriptionCount",
      "outputs": [
        {
          "name": "",
          "type": "uint256"
        }
      ],
      "payable": false,
      "stateMutability": "view",
      "type": "function",
      "signature": "0xb6558498"
    },
    {
      "inputs": [
        {
          "name": "_regulatoryAuthority",
          "type": "address"
        }
      ],
      "payable": false,
      "stateMutability": "nonpayable",
      "type": "constructor",
      "signature": "constructor"
    },
    {
      "anonymous": false,
      "inputs": [
        {
          "indexed": false,
          "name": "id",
          "type": "uint256"
        }
      ],
      "name": "PrescriptionFulfilled",
      "type": "event",
      "signature": "0x9d80387d31123dbcc3f16d095d996aa10533e74066b1d66d00200d296af28759"
    },
    {
      "anonymous": false,
      "inputs": [
        {
          "indexed": false,
          "name": "id",
          "type": "uint256"
        },
        {
          "indexed": false,
          "name": "reason",
          "type": "string"
        }
      ],
      "name": "PrescriptionFlagged",
      "type": "event",
      "signature": "0x7a379dcecd04c57f726b6a0df96dd1aa02067bb8ed0e1480d777a62f3358706e"
    },
    {
      "anonymous": false,
      "inputs": [
        {
          "indexed": false,
          "name": "id",
          "type": "uint256"
        },
        {
          "indexed": false,
          "name": "resolution",
          "type": "string"
        }
      ],
      "name": "PrescriptionResolved",
      "type": "event",
      "signature": "0x0f6ad5a95f7d0e952224cb21d52f9f19cbb43fb51044cce574a495c8f28ff61b"
    },
    {
      "anonymous": false,
      "inputs": [
        {
          "indexed": false,
          "name": "id",
          "type": "uint256"
        },
        {
          "indexed": false,
          "name": "doctor",
          "type": "address"
        },
        {
          "indexed": false,
          "name": "patientId",
          "type": "uint16"
        },
        {
          "indexed": false,
          "name": "drug",
          "type": "string"
        },
        {
          "indexed": false,
          "name": "dosage",
          "type": "uint256"
        },
        {
          "indexed": false,
          "name": "quantity",
          "type": "uint256"
        },
        {
          "indexed": false,
          "name": "emergency",
          "type": "bool"
        },
        {
          "indexed": false,
          "name": "justification",
          "type": "string"
        },
        {
          "indexed": false,
          "name": "flagged",
          "type": "bool"
        }
      ],
      "name": "PrescriptionCreated",
      "type": "event",
      "signature": "0x4cd8c186dfd478a690f0f93b4eabc4b19732ceae94a2565fa68f817717dcc8ee"
    },
    {
      "constant": false,
      "inputs": [
        {
          "name": "_drug",
          "type": "string"
        },
        {
          "name": "_limit",
          "type": "uint256"
        }
      ],
      "name": "setSafeLimit",
      "outputs": [],
      "payable": false,
      "stateMutability": "nonpayable",
      "type": "function",
      "signature": "0x4e079438"
    },
    {
      "constant": true,
      "inputs": [
        {
          "name": "_drug",
          "type": "string"
        }
      ],
      "name": "getSafeLimit",
      "outputs": [
        {
          "name": "",
          "type": "uint256"
        }
      ],
      "payable": false,
      "stateMutability": "view",
      "type": "function",
      "signature": "0x80dd1a8a"
    },
    {
      "constant": false,
      "inputs": [
        {
          "name": "_patientId",
          "type": "uint16"
        },
        {
          "name": "_drug",
          "type": "string"
        },
        {
          "name": "_dosage",
          "type": "uint256"
        },
        {
          "name": "_quantity",
          "type": "uint256"
        },
        {
          "name": "_emergency",
          "type": "bool"
        },
        {
          "name": "_justification",
          "type": "string"
        }
      ],
      "name": "createPrescription",
      "outputs": [],
      "payable": false,
      "stateMutability": "nonpayable",
      "type": "function",
      "signature": "0x2afee7e5"
    },
    {
      "constant": false,
      "inputs": [
        {
          "name": "_id",
          "type": "uint256"
        }
      ],
      "name": "fulfillPrescription",
      "outputs": [],
      "payable": false,
      "stateMutability": "nonpayable",
      "type": "function",
      "signature": "0x686e9062"
    },
    {
      "constant": false,
      "inputs": [
        {
          "name": "_id",
          "type": "uint256"
        },
        {
          "name": "_reason",
          "type": "string"
        }
      ],
      "name": "flagPrescription",
      "outputs": [],
      "payable": false,
      "stateMutability": "nonpayable",
      "type": "function",
      "signature": "0x04546ea1"
    },
    {
      "constant": false,
      "inputs": [
        {
          "name": "_id",
          "type": "uint256"
        },
        {
          "name": "_resolution",
          "type": "string"
        }
      ],
      "name": "resolveFlaggedPrescription",
      "outputs": [],
      "payable": false,
      "stateMutability": "nonpayable",
      "type": "function",
      "signature": "0x90624d4f"
    },
    {
      "constant": true,
      "inputs": [
        {
          "name": "_id",
          "type": "uint256"
        }
      ],
      "name": "viewPrescription",
      "outputs": [
        {
          "name": "",
          "type": "uint256"
        },
        {
          "name": "",
          "type": "address"
        },
        {
          "name": "",
          "type": "uint16"
        },
        {
          "name": "",
          "type": "string"
        },
        {
          "name": "",
          "type": "uint256"
        },
        {
          "name": "",
          "type": "uint256"
        },
        {
          "name": "",
          "type": "string"
        },
        {
          "name": "",
          "type": "bool"
        },
        {
          "name": "",
          "type": "bool"
        },
        {
          "name": "",
          "type": "bool"
        }
      ],
      "payable": false,
      "stateMutability": "view",
      "type": "function",
      "signature": "0x185c20c6"
    }
  ],
  "bytecode": "0x60806040526000805534801561001457600080fd5b506040516020806116568339810180604052602081101561003457600080fd5b505160018054600160a060020a031916600160a060020a039092169190911790556115f2806100646000396000f3fe6080604052600436106100a35763ffffffff7c010000000000000000000000000000000000000000000000000000000060003504166304546ea181146100a8578063185c20c6146101645780632afee7e5146102ca57806331dfc91b146104235780634e07943814610543578063686e9062146105f85780637925132d1461062257806380dd1a8a1461065357806390624d4f14610718578063b6558498146107d2575b600080fd5b3480156100b457600080fd5b50610162600480360360408110156100cb57600080fd5b813591908101906040810160208201356401000000008111156100ed57600080fd5b8201836020820111156100ff57600080fd5b8035906020019184600183028401116401000000008311171561012157600080fd5b91908080601f0160208091040260200160405190810160405280939291908181526020018383808284376000920191909152509295506107e7945050505050565b005b34801561017057600080fd5b5061018e6004803603602081101561018757600080fd5b50356108af565b604051808b81526020018a600160a060020a0316600160a060020a031681526020018961ffff1661ffff168152602001806020018881526020018781526020018060200186151515158152602001851515151581526020018415151515815260200183810383528a818151815260200191508051906020019080838360005b8381101561022557818101518382015260200161020d565b50505050905090810190601f1680156102525780820380516001836020036101000a031916815260200191505b50838103825287518152875160209182019189019080838360005b8381101561028557818101518382015260200161026d565b50505050905090810190601f1680156102b25780820380516001836020036101000a031916815260200191505b509c5050505050505050505050505060405180910390f35b3480156102d657600080fd5b50610162600480360360c08110156102ed57600080fd5b61ffff823516919081019060408101602082013564010000000081111561031357600080fd5b82018360208201111561032557600080fd5b8035906020019184600183028401116401000000008311171561034757600080fd5b91908080601f016020809104026020016040519081016040528093929190818152602001838380828437600092019190915250929584359560208601359560408101351515955091935091506080810190606001356401000000008111156103ae57600080fd5b8201836020820111156103c057600080fd5b803590602001918460018302840111640100000000831117156103e257600080fd5b91908080601f016020809104026020016040519081016040528093929190818152602001838380828437600092019190915250929550610afb945050505050565b34801561042f57600080fd5b5061044d6004803603602081101561044657600080fd5b5035610fc8565b604051808b81526020018a600160a060020a0316600160a060020a031681526020018961ffff1661ffff168152602001806020018881526020018781526020018615151515815260200185151515158152602001806020018415151515815260200183810383528a818151815260200191508051906020019080838360005b838110156104e45781810151838201526020016104cc565b50505050905090810190601f1680156105115780820380516001836020036101000a031916815260200191505b50838103825285518152855160209182019187019080838360008381101561028557818101518382015260200161026d565b34801561054f57600080fd5b506101626004803603604081101561056657600080fd5b81019060208101813564010000000081111561058157600080fd5b82018360208201111561059357600080fd5b803590602001918460018302840111640100000000831117156105b557600080fd5b91908080601f0160208091040260200160405190810160405280939291908181526020018383808284376000920191909152509295505091359250611153915050565b34801561060457600080fd5b506101626004803603602081101561061b57600080fd5b5035611243565b34801561062e57600080fd5b506106376112f4565b60408051600160a060020a039092168252519081900360200190f35b34801561065f57600080fd5b506107066004803603602081101561067657600080fd5b81019060208101813564010000000081111561069157600080fd5b8201836020820111156106a357600080fd5b803590602001918460018302840111640100000000831117156106c557600080fd5b91908080601f016020809104026020016040519081016040528093929190818152602001838380828437600092019190915250929550611303945050505050565b60408051918252519081900360200190f35b34801561072457600080fd5b506101626004803603604081101561073b57600080fd5b8135919081019060408101602082013564010000000081111561075d57600080fd5b82018360208201111561076f57600080fd5b8035906020019184600183028401116401000000008311171561079157600080fd5b91908080601f01602080910402602001604051908101604052809392919081815260200183838082843760009201919091525092955061136b945050505050565b3480156107de57600080fd5b506107066114d2565b600082815260036020908152604080832060078101805460ff191660011790558151868152808401838152865193820193909352855191947f7a379dcecd04c57f726b6a0df96dd1aa02067bb8ed0e1480d777a62f3358706e948894889490926060850192860191908190849084905b8381101561086f578181015183820152602001610857565b50505050905090810190601f16801561089c5780820380516001836020036101000a031916815260200191505b50935050505060405180910390a1505050565b60008060006060600080606060008060006108c86114d8565b60008c81526003602090815260409182902082516101408101845281548152600180830154600160a060020a0381168386015274010000000000000000000000000000000000000000900461ffff16828601526002808401805487516101009482161594909402600019011691909104601f8101869004860283018601909652858252919492936060860193919291908301828280156109a95780601f1061097e576101008083540402835291602001916109a9565b820191906000526020600020905b81548152906001019060200180831161098c57829003601f168201915b505050918352505060038201546020808301919091526004830154604080840191909152600584015460ff808216151560608601526101009182900416151560808501526006850180548351600260018316159094026000190190911692909204601f810185900485028301850190935282825260a0909401939092909190830182828015610a795780601f10610a4e57610100808354040283529160200191610a79565b820191906000526020600020905b815481529060010190602001808311610a5c57829003601f168201915b505050505081526020016007820160009054906101000a900460ff1615151515815250509050806000015181602001518260400151836060015184608001518560a001518661010001518760c001518860e001518961012001518696508393509a509a509a509a509a509a509a509a509a509a50509193959799509193959799565b60008054600101815560405186518291600291899190819060208401908083835b60208310610b3b5780518252601f199092019160209182019101610b1c565b51815160209384036101000a600019018019909216911617905292019485525060405193849003019092205492505084159050610c1e57600081118015610b8157508086115b15610c19576000546040805191825260208201819052602a828201527f456d657267656e637920707265736372697074696f6e2065786365656473207360608301527f616665206c696d69742e00000000000000000000000000000000000000000000608083015251600193507f7a379dcecd04c57f726b6a0df96dd1aa02067bb8ed0e1480d777a62f3358706e9181900360a00190a15b610cf3565b60008111610c9b576040805160e560020a62461bcd028152602060048201526024808201527f53616665206c696d697420666f7220746869732064727567206973206e6f742060448201527f7365742e00000000000000000000000000000000000000000000000000000000606482015290519081900360840190fd5b80861115610cf3576040805160e560020a62461bcd02815260206004820152601a60248201527f446f7361676520657863656564732073616665206c696d69742e000000000000604482015290519081900360640190fd5b60408051610140810182526000805480835233602080850191825261ffff808f16868801908152606087018f8152608088018f905260a088018e905260c088018790528c151560e089015261010088018c90528a151561012089015294865260038352969094208551815591516001830180549751909516740100000000000000000000000000000000000000000275ffff000000000000000000000000000000000000000019600160a060020a039290921673ffffffffffffffffffffffffffffffffffffffff1990981697909717169590951790925551805192939192610de2926002850192019061152b565b506080820151600382015560a0820151600482015560c082015160058201805460e085015160ff199091169215159290921761ff00191661010092151583021790558201518051610e3d91600684019160209091019061152b565b506101208201518160070160006101000a81548160ff0219169083151502179055509050507f4cd8c186dfd478a690f0f93b4eabc4b19732ceae94a2565fa68f817717dcc8ee600054338a8a8a8a8a8a8a604051808a815260200189600160a060020a0316600160a060020a031681526020018861ffff1661ffff16815260200180602001878152602001868152602001851515151581526020018060200184151515158152602001838103835289818151815260200191508051906020019080838360005b83811015610f1b578181015183820152602001610f03565b50505050905090810190601f168015610f485780820380516001836020036101000a031916815260200191505b50838103825285518152855160209182019187019080838360005b83811015610f7b578181015183820152602001610f63565b50505050905090810190601f168015610fa85780820380516001836020036101000a031916815260200191505b509b50505050505050505050505060405180910390a15050505050505050565b60036020908152600091825260409182902080546001808301546002808501805488516101009582161595909502600019011691909104601f81018790048702840187019097528683529295600160a060020a038216957401000000000000000000000000000000000000000090920461ffff169493918301828280156110905780601f1061106557610100808354040283529160200191611090565b820191906000526020600020905b81548152906001019060200180831161107357829003601f168201915b505050506003830154600484015460058501546006860180546040805160206002610100600186161581026000190190951604601f81018290048202830182019093528282529899969895975060ff808616979390950490941694919392918301828280156111405780601f1061111557610100808354040283529160200191611140565b820191906000526020600020905b81548152906001019060200180831161112357829003601f168201915b5050506007909301549192505060ff168a565b600154600160a060020a031633146111db576040805160e560020a62461bcd02815260206004820152602e60248201527f4f6e6c7920726567756c61746f727920617574686f726974792063616e20736560448201527f742073616665206c696d6974732e000000000000000000000000000000000000606482015290519081900360840190fd5b806002836040518082805190602001908083835b6020831061120e5780518252601f1990920191602091820191016111ef565b51815160209384036101000a600019018019909216911617905292019485525060405193849003019092209290925550505050565b6000818152600360205260409020600581015460ff16156112ae576040805160e560020a62461bcd02815260206004820152601f60248201527f507265736372697074696f6e20616c72656164792066756c66696c6c65642e00604482015290519081900360640190fd5b60058101805460ff191660011790556040805183815290517f9d80387d31123dbcc3f16d095d996aa10533e74066b1d66d00200d296af287599181900360200190a15050565b600154600160a060020a031681565b60006002826040518082805190602001908083835b602083106113375780518252601f199092019160209182019101611318565b51815160209384036101000a6000190180199092169116179052920194855250604051938490030190922054949350505050565b600154600160a060020a031633146113f3576040805160e560020a62461bcd02815260206004820152603c60248201527f4f6e6c7920726567756c61746f727920617574686f726974792063616e20726560448201527f736f6c766520666c616767656420707265736372697074696f6e732e00000000606482015290519081900360840190fd5b6000828152600360205260409020600781015460ff16151561145f576040805160e560020a62461bcd02815260206004820152601c60248201527f507265736372697074696f6e206973206e6f7420666c61676765642e00000000604482015290519081900360640190fd5b60078101805460ff1916905560408051848152602080820183815285519383019390935284517f0f6ad5a95f7d0e952224cb21d52f9f19cbb43fb51044cce574a495c8f28ff61b93879387939092606084019185019080838360008381101561086f578181015183820152602001610857565b60005481565b604080516101408101825260008082526020820181905291810182905260608082018190526080820183905260a0820183905260c0820183905260e0820183905261010082015261012081019190915290565b828054600181600116156101000203166002900490600052602060002090601f016020900481019282601f1061156c57805160ff1916838001178555611599565b82800160010185558215611599579182015b8281111561159957825182559160200191906001019061157e565b506115a59291506115a9565b5090565b6115c391905b808211156115a557600081556001016115af565b9056fea165627a7a7230582061c14758764c34aac8e0f54b84ef5394fa06292242ada1fb5fa11ae1c3ef9f560029",
  "source": "pragma solidity ^0.5.0;\r\n\r\ncontract MedicalPrescription {\r\n    uint public prescriptionCount = 0;\r\n    address public regulatoryAuthority;\r\n\r\n    struct Prescription {\r\n        uint id;\r\n        address doctor;\r\n        uint16 patientId;\r\n        string drug;\r\n        uint dosage;\r\n        uint quantity;\r\n        bool fulfilled; \r\n        bool emergency;\r\n        string justification;\r\n        bool flagged;\r\n    }\r\n\r\n    // Private mapping for safe dosage limits\r\n    mapping(string => uint) private safeLimits; \r\n\r\n    // Mapping to store prescriptions by their ID\r\n    mapping(uint => Prescription) public prescriptions;\r\n\r\n    event PrescriptionFulfilled(uint id);\r\n    event PrescriptionFlagged(uint id, string reason);\r\n    event PrescriptionResolved(uint id, string resolution);\r\n    event PrescriptionCreated(uint id, address doctor, uint16 patientId, string drug, uint dosage, uint quantity, bool emergency, string justification, bool flagged);\r\n\r\n    constructor(address _regulatoryAuthority) public {\r\n        regulatoryAuthority = _regulatoryAuthority;\r\n    }\r\n\r\n    function setSafeLimit(string memory _drug, uint _limit) public {\r\n        require(msg.sender == regulatoryAuthority, \"Only regulatory authority can set safe limits.\");\r\n        safeLimits[_drug] = _limit;\r\n    }\r\n\r\n    // Getter function for safe limits\r\n    function getSafeLimit(string memory _drug) public view returns (uint) {\r\n        return safeLimits[_drug];\r\n    }\r\n\r\n    function createPrescription(\r\n        uint16 _patientId,\r\n        string memory _drug,\r\n        uint _dosage,\r\n        uint _quantity,\r\n        bool _emergency,\r\n        string memory _justification\r\n    ) public {\r\n        prescriptionCount++;\r\n\r\n        bool flagged = false;\r\n\r\n        uint safeLimit = safeLimits[_drug];\r\n        \r\n        if (_emergency) {\r\n            // Flag if emergency prescription exceeds safe limits\r\n            if (safeLimit > 0 && _dosage > safeLimit) {\r\n                flagged = true;\r\n                emit PrescriptionFlagged(prescriptionCount, \"Emergency prescription exceeds safe limit.\");\r\n            }\r\n        } else {\r\n            require(safeLimit > 0, \"Safe limit for this drug is not set.\");\r\n            require(_dosage <= safeLimit, \"Dosage exceeds safe limit.\");\r\n        }\r\n\r\n        prescriptions[prescriptionCount] = Prescription(\r\n            prescriptionCount,\r\n            msg.sender,  // doctor address\r\n            _patientId,\r\n            _drug,\r\n            _dosage,\r\n            _quantity,\r\n            false,\r\n            _emergency,\r\n            _justification,\r\n            flagged\r\n        );\r\n\r\n        // Emit the PrescriptionCreated event\r\n        emit PrescriptionCreated(\r\n            prescriptionCount,\r\n            msg.sender,  // doctor address\r\n            _patientId,\r\n            _drug,\r\n            _dosage,\r\n            _quantity,\r\n            _emergency,\r\n            _justification,\r\n            flagged\r\n        );\r\n    }\r\n\r\n    function fulfillPrescription(uint _id) public {\r\n        Prescription storage prescription = prescriptions[_id];\r\n        require(!prescription.fulfilled, \"Prescription already fulfilled.\");\r\n        prescription.fulfilled = true; // Simply mark it as fulfilled\r\n        emit PrescriptionFulfilled(_id);\r\n    }\r\n\r\n    // Flag prescription, any user can flag it.\r\n    function flagPrescription(uint _id, string memory _reason) public {\r\n        Prescription storage prescription = prescriptions[_id];\r\n        prescription.flagged = true;\r\n        emit PrescriptionFlagged(_id, _reason);\r\n    }\r\n\r\n    // Only regulatory authority can resolve flagged prescriptions\r\n    function resolveFlaggedPrescription(uint _id, string memory _resolution) public {\r\n        require(msg.sender == regulatoryAuthority, \"Only regulatory authority can resolve flagged prescriptions.\");\r\n        Prescription storage prescription = prescriptions[_id];\r\n        require(prescription.flagged, \"Prescription is not flagged.\");\r\n        prescription.flagged = false;\r\n        emit PrescriptionResolved(_id, _resolution);\r\n    }\r\n\r\n    // Corrected return type to match the expected tuple\r\n    function viewPrescription(uint _id) public view returns (\r\n        uint, address, uint16, string memory, uint, uint, string memory, bool, bool, bool\r\n    ) {\r\n        Prescription memory prescription = prescriptions[_id];\r\n        return (\r\n            prescription.id,\r\n            prescription.doctor,\r\n            prescription.patientId,\r\n            prescription.drug,\r\n            prescription.dosage,\r\n            prescription.quantity,\r\n            prescription.justification,\r\n            prescription.fulfilled,\r\n            prescription.emergency,\r\n            prescription.flagged\r\n        );\r\n    }\r\n}\r\n",
  "sourcePath": "D:/Major_project/final_final_contract/contracts/MedicalPrescription.sol",
  "compiler": {
    "name": "solc",
    "version": "0.5.0+commit.1d4f565a.Emscripten.clang"
  },
  "schemaVersion": "3.0.1",
  "updatedAt": "2025-01-08T11:13:44.593Z",
  "devdoc": {
    "methods": {}
  },
  "userdoc": {
    "methods": {}
  }
}