{
  "contractName": "MedicalPrescription",
  "abi": [
    {
      "constant": true,
      "inputs": [
        {
          "name": "",
          "type": "uint256"
        }
      ],
      "name": "prescriptions",
      "outputs": [
        {
          "name": "id",
          "type": "uint256"
        },
        {
          "name": "doctor",
          "type": "address"
        },
        {
          "name": "patientId",
          "type": "uint16"
        },
        {
          "name": "drug",
          "type": "string"
        },
        {
          "name": "dosage",
          "type": "string"
        },
        {
          "name": "direction",
          "type": "string"
        },
        {
          "name": "comments",
          "type": "string"
        },
        {
          "name": "fulfilled",
          "type": "bool"
        }
      ],
      "payable": false,
      "stateMutability": "view",
      "type": "function",
      "signature": "0x31dfc91b"
    },
    {
      "constant": true,
      "inputs": [],
      "name": "prescriptionCount",
      "outputs": [
        {
          "name": "",
          "type": "uint256"
        }
      ],
      "payable": false,
      "stateMutability": "view",
      "type": "function",
      "signature": "0xb6558498"
    },
    {
      "anonymous": false,
      "inputs": [
        {
          "indexed": false,
          "name": "id",
          "type": "uint256"
        },
        {
          "indexed": false,
          "name": "doctor",
          "type": "address"
        },
        {
          "indexed": false,
          "name": "patientId",
          "type": "uint16"
        },
        {
          "indexed": false,
          "name": "drug",
          "type": "string"
        },
        {
          "indexed": false,
          "name": "dosage",
          "type": "string"
        },
        {
          "indexed": false,
          "name": "direction",
          "type": "string"
        },
        {
          "indexed": false,
          "name": "comments",
          "type": "string"
        },
        {
          "indexed": false,
          "name": "fulfilled",
          "type": "bool"
        }
      ],
      "name": "PrescriptionCreated",
      "type": "event",
      "signature": "0x2e03678a903758b3cc92d6beddb5ce2a9ed0d70d65f6ddc9c8c5d7602be02cac"
    },
    {
      "anonymous": false,
      "inputs": [
        {
          "indexed": false,
          "name": "id",
          "type": "uint256"
        },
        {
          "indexed": false,
          "name": "pharmacist",
          "type": "address"
        }
      ],
      "name": "PrescriptionFulfilled",
      "type": "event",
      "signature": "0x1fd747d593a3abe3d63a6823e8452fc4a810ea6aedf557a8fd0e6af7db71f4b6"
    },
    {
      "constant": false,
      "inputs": [
        {
          "name": "_patientId",
          "type": "uint16"
        },
        {
          "name": "_drug",
          "type": "string"
        },
        {
          "name": "_dosage",
          "type": "string"
        },
        {
          "name": "_direction",
          "type": "string"
        },
        {
          "name": "_comments",
          "type": "string"
        }
      ],
      "name": "createPrescription",
      "outputs": [],
      "payable": false,
      "stateMutability": "nonpayable",
      "type": "function",
      "signature": "0xec39e140"
    },
    {
      "constant": false,
      "inputs": [
        {
          "name": "_id",
          "type": "uint256"
        }
      ],
      "name": "fulfillPrescription",
      "outputs": [],
      "payable": false,
      "stateMutability": "nonpayable",
      "type": "function",
      "signature": "0x686e9062"
    },
    {
      "constant": true,
      "inputs": [
        {
          "name": "_id",
          "type": "uint256"
        }
      ],
      "name": "viewPrescription",
      "outputs": [
        {
          "name": "",
          "type": "uint256"
        },
        {
          "name": "",
          "type": "address"
        },
        {
          "name": "",
          "type": "uint16"
        },
        {
          "name": "",
          "type": "string"
        },
        {
          "name": "",
          "type": "string"
        },
        {
          "name": "",
          "type": "string"
        },
        {
          "name": "",
          "type": "string"
        },
        {
          "name": "",
          "type": "bool"
        }
      ],
      "payable": false,
      "stateMutability": "view",
      "type": "function",
      "signature": "0x185c20c6"
    }
  ],
  "bytecode": "0x60806040526000805534801561001457600080fd5b5061106e806100246000396000f3fe60806040526004361061006c5763ffffffff7c0100000000000000000000000000000000000000000000000000000000600035041663185c20c6811461007157806331dfc91b1461027f578063686e9062146102a9578063b6558498146102d5578063ec39e140146102fc575b600080fd5b34801561007d57600080fd5b5061009b6004803603602081101561009457600080fd5b503561054f565b6040518089815260200188600160a060020a0316600160a060020a031681526020018761ffff1661ffff168152602001806020018060200180602001806020018615151515815260200185810385528a818151815260200191508051906020019080838360005b8381101561011a578181015183820152602001610102565b50505050905090810190601f1680156101475780820380516001836020036101000a031916815260200191505b5085810384528951815289516020918201918b019080838360005b8381101561017a578181015183820152602001610162565b50505050905090810190601f1680156101a75780820380516001836020036101000a031916815260200191505b5085810383528851815288516020918201918a019080838360005b838110156101da5781810151838201526020016101c2565b50505050905090810190601f1680156102075780820380516001836020036101000a031916815260200191505b50858103825287518152875160209182019189019080838360005b8381101561023a578181015183820152602001610222565b50505050905090810190601f1680156102675780820380516001836020036101000a031916815260200191505b509c5050505050505050505050505060405180910390f35b34801561028b57600080fd5b5061009b600480360360208110156102a257600080fd5b5035610859565b3480156102b557600080fd5b506102d3600480360360208110156102cc57600080fd5b5035610ae3565b005b3480156102e157600080fd5b506102ea610bd8565b60408051918252519081900360200190f35b34801561030857600080fd5b506102d3600480360360a081101561031f57600080fd5b61ffff823516919081019060408101602082013564010000000081111561034557600080fd5b82018360208201111561035757600080fd5b8035906020019184600183028401116401000000008311171561037957600080fd5b91908080601f01602080910402602001604051908101604052809392919081815260200183838082843760009201919091525092959493602081019350359150506401000000008111156103cc57600080fd5b8201836020820111156103de57600080fd5b8035906020019184600183028401116401000000008311171561040057600080fd5b91908080601f016020809104026020016040519081016040528093929190818152602001838380828437600092019190915250929594936020810193503591505064010000000081111561045357600080fd5b82018360208201111561046557600080fd5b8035906020019184600183028401116401000000008311171561048757600080fd5b91908080601f01602080910402602001604051908101604052809392919081815260200183838082843760009201919091525092959493602081019350359150506401000000008111156104da57600080fd5b8201836020820111156104ec57600080fd5b8035906020019184600183028401116401000000008311171561050e57600080fd5b91908080601f016020809104026020016040519081016040528093929190818152602001838380828437600092019190915250929550610bde945050505050565b60008060006060806060806000610564610f52565b60008a815260016020818152604092839020835161010080820186528254825282850154600160a060020a0381168386015274010000000000000000000000000000000000000000900461ffff1682870152600280840180548851978116159093026000190190921604601f810185900485028601850190965285855290949193606086019390929083018282801561063e5780601f106106135761010080835404028352916020019161063e565b820191906000526020600020905b81548152906001019060200180831161062157829003601f168201915b505050918352505060038201805460408051602060026001851615610100026000190190941693909304601f81018490048402820184019092528181529382019392918301828280156106d25780601f106106a7576101008083540402835291602001916106d2565b820191906000526020600020905b8154815290600101906020018083116106b557829003601f168201915b505050918352505060048201805460408051602060026001851615610100026000190190941693909304601f81018490048402820184019092528181529382019392918301828280156107665780601f1061073b57610100808354040283529160200191610766565b820191906000526020600020905b81548152906001019060200180831161074957829003601f168201915b505050918352505060058201805460408051602060026001851615610100026000190190941693909304601f81018490048402820184019092528181529382019392918301828280156107fa5780601f106107cf576101008083540402835291602001916107fa565b820191906000526020600020905b8154815290600101906020018083116107dd57829003601f168201915b50505091835250506006919091015460ff16151560209182015281519082015160408301516060840151608085015160a086015160c087015160e090970151959f50939d50919b50995097509550909350915050919395975091939597565b6001602081815260009283526040928390208054818401546002808401805488516101009882161598909802600019011691909104601f81018690048602870186019097528686529195600160a060020a038216957401000000000000000000000000000000000000000090920461ffff16949192918301828280156109205780601f106108f557610100808354040283529160200191610920565b820191906000526020600020905b81548152906001019060200180831161090357829003601f168201915b5050505060038301805460408051602060026001851615610100026000190190941693909304601f81018490048402820184019092528181529495949350908301828280156109b05780601f10610985576101008083540402835291602001916109b0565b820191906000526020600020905b81548152906001019060200180831161099357829003601f168201915b5050505060048301805460408051602060026001851615610100026000190190941693909304601f8101849004840282018401909252818152949594935090830182828015610a405780601f10610a1557610100808354040283529160200191610a40565b820191906000526020600020905b815481529060010190602001808311610a2357829003601f168201915b5050505060058301805460408051602060026001851615610100026000190190941693909304601f8101849004840282018401909252818152949594935090830182828015610ad05780601f10610aa557610100808354040283529160200191610ad0565b820191906000526020600020905b815481529060010190602001808311610ab357829003601f168201915b5050506006909301549192505060ff1688565b6000818152600160205260409020600681015460ff1615610b8b57604080517f08c379a000000000000000000000000000000000000000000000000000000000815260206004820152602760248201527f5468697320707265736372697074696f6e20697320616c72656164792066756c60448201527f66696c6c65642e00000000000000000000000000000000000000000000000000606482015290519081900360840190fd5b60068101805460ff191660011790556040805183815233602082015281517f1fd747d593a3abe3d63a6823e8452fc4a810ea6aedf557a8fd0e6af7db71f4b6929181900390910190a15050565b60005481565b600080546001908101808355604080516101008101825282815233602080830191825261ffff8c8116848601908152606085018d8152608086018d905260a086018c905260c086018b905260e086018a9052968952878352949097208351815591519582018054945173ffffffffffffffffffffffffffffffffffffffff19909516600160a060020a039097169690961775ffff000000000000000000000000000000000000000019167401000000000000000000000000000000000000000094909716939093029590951790935590518051929392610cc49260028501920190610fa7565b5060808201518051610ce0916003840191602090910190610fa7565b5060a08201518051610cfc916004840191602090910190610fa7565b5060c08201518051610d18916005840191602090910190610fa7565b5060e08201518160060160006101000a81548160ff0219169083151502179055509050507f2e03678a903758b3cc92d6beddb5ce2a9ed0d70d65f6ddc9c8c5d7602be02cac60005433878787878760006040518089815260200188600160a060020a0316600160a060020a031681526020018761ffff1661ffff168152602001806020018060200180602001806020018615151515815260200185810385528a818151815260200191508051906020019080838360005b83811015610de7578181015183820152602001610dcf565b50505050905090810190601f168015610e145780820380516001836020036101000a031916815260200191505b5085810384528951815289516020918201918b019080838360005b83811015610e47578181015183820152602001610e2f565b50505050905090810190601f168015610e745780820380516001836020036101000a031916815260200191505b5085810383528851815288516020918201918a019080838360005b83811015610ea7578181015183820152602001610e8f565b50505050905090810190601f168015610ed45780820380516001836020036101000a031916815260200191505b50858103825287518152875160209182019189019080838360005b83811015610f07578181015183820152602001610eef565b50505050905090810190601f168015610f345780820380516001836020036101000a031916815260200191505b509c5050505050505050505050505060405180910390a15050505050565b61010060405190810160405280600081526020016000600160a060020a03168152602001600061ffff168152602001606081526020016060815260200160608152602001606081526020016000151581525090565b828054600181600116156101000203166002900490600052602060002090601f016020900481019282601f10610fe857805160ff1916838001178555611015565b82800160010185558215611015579182015b82811115611015578251825591602001919060010190610ffa565b50611021929150611025565b5090565b61103f91905b80821115611021576000815560010161102b565b9056fea165627a7a723058201df1f723d6f112689464e65039a1e444f05d7d88851d46c96d3c8d7287f940c40029",
  "source": "pragma solidity ^0.5.0;\r\n\r\ncontract MedicalPrescription {\r\n    uint public prescriptionCount = 0;\r\n\r\n    // Define Prescription structure\r\n    struct Prescription {\r\n        uint id;\r\n        address doctor;       // Doctor's Ethereum address\r\n        uint16 patientId;     // Patient's ID\r\n        string drug;          // Name of the prescribed drug\r\n        string dosage;        // Dosage details\r\n        string direction;     // Directions for use\r\n        string comments;      // Additional comments or notes\r\n        bool fulfilled;       // Fulfillment status\r\n    }\r\n\r\n    // Mapping to store prescriptions\r\n    mapping(uint => Prescription) public prescriptions;\r\n\r\n    // Events to log contract activities\r\n    event PrescriptionCreated(\r\n        uint id,\r\n        address doctor,\r\n        uint16 patientId,\r\n        string drug,\r\n        string dosage,\r\n        string direction,\r\n        string comments,\r\n        bool fulfilled\r\n    );\r\n\r\n    event PrescriptionFulfilled(\r\n        uint id,\r\n        address pharmacist\r\n    );\r\n\r\n    // Create a new prescription (only by a doctor)\r\n    function createPrescription(\r\n        uint16 _patientId, \r\n        string memory _drug, \r\n        string memory _dosage, \r\n        string memory _direction, \r\n        string memory _comments\r\n    ) \r\n        public \r\n    {\r\n        prescriptionCount++;\r\n        prescriptions[prescriptionCount] = Prescription(\r\n            prescriptionCount,\r\n            msg.sender, // Doctor's address\r\n            _patientId,\r\n            _drug,\r\n            _dosage,\r\n            _direction,\r\n            _comments,\r\n            false // Initially not fulfilled\r\n        );\r\n        emit PrescriptionCreated(\r\n            prescriptionCount, \r\n            msg.sender, \r\n            _patientId, \r\n            _drug, \r\n            _dosage, \r\n            _direction, \r\n            _comments, \r\n            false\r\n        );\r\n    }\r\n\r\n    // Fulfill a prescription (any pharmacist)\r\n    function fulfillPrescription(uint _id) public {\r\n        Prescription storage prescription = prescriptions[_id];\r\n\r\n        require(!prescription.fulfilled, \"This prescription is already fulfilled.\");\r\n\r\n        prescription.fulfilled = true;\r\n\r\n        emit PrescriptionFulfilled(_id, msg.sender);\r\n    }\r\n\r\n    // View a prescription (public visibility)\r\n    function viewPrescription(uint _id) public view returns (\r\n        uint, address, uint16, string memory, string memory, string memory, string memory, bool\r\n    ) {\r\n        Prescription memory prescription = prescriptions[_id];\r\n        return (\r\n            prescription.id,\r\n            prescription.doctor,\r\n            prescription.patientId,\r\n            prescription.drug,\r\n            prescription.dosage,\r\n            prescription.direction,\r\n            prescription.comments,\r\n            prescription.fulfilled\r\n        );\r\n    }\r\n}\r\n",
  "sourcePath": "D:/Major_project/finalContract/contracts/MedicalPrescription.sol",
  "compiler": {
    "name": "solc",
    "version": "0.5.0+commit.1d4f565a.Emscripten.clang"
  },
  "schemaVersion": "3.0.1",
  "updatedAt": "2025-01-02T10:25:44.155Z",
  "devdoc": {
    "methods": {}
  },
  "userdoc": {
    "methods": {}
  }
}